{
  "_format": "hh-sol-artifact-1",
  "contractName": "RealEstateNFT",
  "sourceName": "contracts/RealStateNFT.sol",
  "abi": [
    {
      "inputs": [],
      "stateMutability": "nonpayable",
      "type": "constructor"
    },
    {
      "inputs": [
        {
          "internalType": "address",
          "name": "sender",
          "type": "address"
        },
        {
          "internalType": "uint256",
          "name": "tokenId",
          "type": "uint256"
        },
        {
          "internalType": "address",
          "name": "owner",
          "type": "address"
        }
      ],
      "name": "ERC721IncorrectOwner",
      "type": "error"
    },
    {
      "inputs": [
        {
          "internalType": "address",
          "name": "operator",
          "type": "address"
        },
        {
          "internalType": "uint256",
          "name": "tokenId",
          "type": "uint256"
        }
      ],
      "name": "ERC721InsufficientApproval",
      "type": "error"
    },
    {
      "inputs": [
        {
          "internalType": "address",
          "name": "approver",
          "type": "address"
        }
      ],
      "name": "ERC721InvalidApprover",
      "type": "error"
    },
    {
      "inputs": [
        {
          "internalType": "address",
          "name": "operator",
          "type": "address"
        }
      ],
      "name": "ERC721InvalidOperator",
      "type": "error"
    },
    {
      "inputs": [
        {
          "internalType": "address",
          "name": "owner",
          "type": "address"
        }
      ],
      "name": "ERC721InvalidOwner",
      "type": "error"
    },
    {
      "inputs": [
        {
          "internalType": "address",
          "name": "receiver",
          "type": "address"
        }
      ],
      "name": "ERC721InvalidReceiver",
      "type": "error"
    },
    {
      "inputs": [
        {
          "internalType": "address",
          "name": "sender",
          "type": "address"
        }
      ],
      "name": "ERC721InvalidSender",
      "type": "error"
    },
    {
      "inputs": [
        {
          "internalType": "uint256",
          "name": "tokenId",
          "type": "uint256"
        }
      ],
      "name": "ERC721NonexistentToken",
      "type": "error"
    },
    {
      "anonymous": false,
      "inputs": [
        {
          "indexed": true,
          "internalType": "address",
          "name": "owner",
          "type": "address"
        },
        {
          "indexed": true,
          "internalType": "address",
          "name": "approved",
          "type": "address"
        },
        {
          "indexed": true,
          "internalType": "uint256",
          "name": "tokenId",
          "type": "uint256"
        }
      ],
      "name": "Approval",
      "type": "event"
    },
    {
      "anonymous": false,
      "inputs": [
        {
          "indexed": true,
          "internalType": "address",
          "name": "owner",
          "type": "address"
        },
        {
          "indexed": true,
          "internalType": "address",
          "name": "operator",
          "type": "address"
        },
        {
          "indexed": false,
          "internalType": "bool",
          "name": "approved",
          "type": "bool"
        }
      ],
      "name": "ApprovalForAll",
      "type": "event"
    },
    {
      "anonymous": false,
      "inputs": [
        {
          "indexed": false,
          "internalType": "uint256",
          "name": "_fromTokenId",
          "type": "uint256"
        },
        {
          "indexed": false,
          "internalType": "uint256",
          "name": "_toTokenId",
          "type": "uint256"
        }
      ],
      "name": "BatchMetadataUpdate",
      "type": "event"
    },
    {
      "anonymous": false,
      "inputs": [
        {
          "indexed": false,
          "internalType": "uint256",
          "name": "_tokenId",
          "type": "uint256"
        }
      ],
      "name": "MetadataUpdate",
      "type": "event"
    },
    {
      "anonymous": false,
      "inputs": [
        {
          "indexed": true,
          "internalType": "address",
          "name": "from",
          "type": "address"
        },
        {
          "indexed": true,
          "internalType": "address",
          "name": "to",
          "type": "address"
        },
        {
          "indexed": true,
          "internalType": "uint256",
          "name": "tokenId",
          "type": "uint256"
        }
      ],
      "name": "Transfer",
      "type": "event"
    },
    {
      "inputs": [
        {
          "internalType": "address",
          "name": "to",
          "type": "address"
        },
        {
          "internalType": "uint256",
          "name": "tokenId",
          "type": "uint256"
        }
      ],
      "name": "approve",
      "outputs": [],
      "stateMutability": "nonpayable",
      "type": "function"
    },
    {
      "inputs": [
        {
          "internalType": "address",
          "name": "owner",
          "type": "address"
        }
      ],
      "name": "balanceOf",
      "outputs": [
        {
          "internalType": "uint256",
          "name": "",
          "type": "uint256"
        }
      ],
      "stateMutability": "view",
      "type": "function"
    },
    {
      "inputs": [
        {
          "internalType": "uint256",
          "name": "tokenId",
          "type": "uint256"
        }
      ],
      "name": "getApproved",
      "outputs": [
        {
          "internalType": "address",
          "name": "",
          "type": "address"
        }
      ],
      "stateMutability": "view",
      "type": "function"
    },
    {
      "inputs": [
        {
          "internalType": "address",
          "name": "owner",
          "type": "address"
        },
        {
          "internalType": "address",
          "name": "operator",
          "type": "address"
        }
      ],
      "name": "isApprovedForAll",
      "outputs": [
        {
          "internalType": "bool",
          "name": "",
          "type": "bool"
        }
      ],
      "stateMutability": "view",
      "type": "function"
    },
    {
      "inputs": [
        {
          "internalType": "address",
          "name": "to",
          "type": "address"
        },
        {
          "internalType": "string",
          "name": "tokenURI",
          "type": "string"
        }
      ],
      "name": "mintNFT",
      "outputs": [
        {
          "internalType": "uint256",
          "name": "",
          "type": "uint256"
        }
      ],
      "stateMutability": "nonpayable",
      "type": "function"
    },
    {
      "inputs": [],
      "name": "name",
      "outputs": [
        {
          "internalType": "string",
          "name": "",
          "type": "string"
        }
      ],
      "stateMutability": "view",
      "type": "function"
    },
    {
      "inputs": [
        {
          "internalType": "uint256",
          "name": "tokenId",
          "type": "uint256"
        }
      ],
      "name": "ownerOf",
      "outputs": [
        {
          "internalType": "address",
          "name": "",
          "type": "address"
        }
      ],
      "stateMutability": "view",
      "type": "function"
    },
    {
      "inputs": [
        {
          "internalType": "address",
          "name": "from",
          "type": "address"
        },
        {
          "internalType": "address",
          "name": "to",
          "type": "address"
        },
        {
          "internalType": "uint256",
          "name": "tokenId",
          "type": "uint256"
        }
      ],
      "name": "safeTransferFrom",
      "outputs": [],
      "stateMutability": "nonpayable",
      "type": "function"
    },
    {
      "inputs": [
        {
          "internalType": "address",
          "name": "from",
          "type": "address"
        },
        {
          "internalType": "address",
          "name": "to",
          "type": "address"
        },
        {
          "internalType": "uint256",
          "name": "tokenId",
          "type": "uint256"
        },
        {
          "internalType": "bytes",
          "name": "data",
          "type": "bytes"
        }
      ],
      "name": "safeTransferFrom",
      "outputs": [],
      "stateMutability": "nonpayable",
      "type": "function"
    },
    {
      "inputs": [
        {
          "internalType": "address",
          "name": "operator",
          "type": "address"
        },
        {
          "internalType": "bool",
          "name": "approved",
          "type": "bool"
        }
      ],
      "name": "setApprovalForAll",
      "outputs": [],
      "stateMutability": "nonpayable",
      "type": "function"
    },
    {
      "inputs": [
        {
          "internalType": "bytes4",
          "name": "interfaceId",
          "type": "bytes4"
        }
      ],
      "name": "supportsInterface",
      "outputs": [
        {
          "internalType": "bool",
          "name": "",
          "type": "bool"
        }
      ],
      "stateMutability": "view",
      "type": "function"
    },
    {
      "inputs": [],
      "name": "symbol",
      "outputs": [
        {
          "internalType": "string",
          "name": "",
          "type": "string"
        }
      ],
      "stateMutability": "view",
      "type": "function"
    },
    {
      "inputs": [],
      "name": "tokenCounter",
      "outputs": [
        {
          "internalType": "uint256",
          "name": "",
          "type": "uint256"
        }
      ],
      "stateMutability": "view",
      "type": "function"
    },
    {
      "inputs": [
        {
          "internalType": "uint256",
          "name": "tokenId",
          "type": "uint256"
        }
      ],
      "name": "tokenURI",
      "outputs": [
        {
          "internalType": "string",
          "name": "",
          "type": "string"
        }
      ],
      "stateMutability": "view",
      "type": "function"
    },
    {
      "inputs": [
        {
          "internalType": "address",
          "name": "from",
          "type": "address"
        },
        {
          "internalType": "address",
          "name": "to",
          "type": "address"
        },
        {
          "internalType": "uint256",
          "name": "tokenId",
          "type": "uint256"
        }
      ],
      "name": "transferFrom",
      "outputs": [],
      "stateMutability": "nonpayable",
      "type": "function"
    },
    {
      "inputs": [
        {
          "internalType": "uint256",
          "name": "tokenId",
          "type": "uint256"
        },
        {
          "internalType": "string",
          "name": "tokenURI",
          "type": "string"
        }
      ],
      "name": "updateMetadata",
      "outputs": [],
      "stateMutability": "nonpayable",
      "type": "function"
    }
  ],
  "bytecode": "0x60806040523480156200001157600080fd5b506040518060400160405280600d81526020017f5265616c4573746174654e4654000000000000000000000000000000000000008152506040518060400160405280600581526020017f484f55534500000000000000000000000000000000000000000000000000000081525081600090816200008f91906200032c565b508060019081620000a191906200032c565b505050600060078190555062000413565b600081519050919050565b7f4e487b7100000000000000000000000000000000000000000000000000000000600052604160045260246000fd5b7f4e487b7100000000000000000000000000000000000000000000000000000000600052602260045260246000fd5b600060028204905060018216806200013457607f821691505b6020821081036200014a5762000149620000ec565b5b50919050565b60008190508160005260206000209050919050565b60006020601f8301049050919050565b600082821b905092915050565b600060088302620001b47fffffffffffffffffffffffffffffffffffffffffffffffffffffffffffffffff8262000175565b620001c0868362000175565b95508019841693508086168417925050509392505050565b6000819050919050565b6000819050919050565b60006200020d620002076200020184620001d8565b620001e2565b620001d8565b9050919050565b6000819050919050565b6200022983620001ec565b62000241620002388262000214565b84845462000182565b825550505050565b600090565b6200025862000249565b620002658184846200021e565b505050565b5b818110156200028d57620002816000826200024e565b6001810190506200026b565b5050565b601f821115620002dc57620002a68162000150565b620002b18462000165565b81016020851015620002c1578190505b620002d9620002d08562000165565b8301826200026a565b50505b505050565b600082821c905092915050565b60006200030160001984600802620002e1565b1980831691505092915050565b60006200031c8383620002ee565b9150826002028217905092915050565b6200033782620000b2565b67ffffffffffffffff811115620003535762000352620000bd565b5b6200035f82546200011b565b6200036c82828562000291565b600060209050601f831160018114620003a457600084156200038f578287015190505b6200039b85826200030e565b8655506200040b565b601f198416620003b48662000150565b60005b82811015620003de57848901518255600182019150602085019450602081019050620003b7565b86831015620003fe5784890151620003fa601f891682620002ee565b8355505b6001600288020188555050505b505050505050565b61263480620004236000396000f3fe608060405234801561001057600080fd5b50600436106101005760003560e01c806370a0823111610097578063c87b56dd11610066578063c87b56dd146102a9578063d082e381146102d9578063e985e9c5146102f7578063eacabe141461032757610100565b806370a082311461022357806395d89b4114610253578063a22cb46514610271578063b88d4fde1461028d57610100565b806323b872dd116100d357806323b872dd1461019f57806342842e0e146101bb57806353c8388e146101d75780636352211e146101f357610100565b806301ffc9a71461010557806306fdde0314610135578063081812fc14610153578063095ea7b314610183575b600080fd5b61011f600480360381019061011a919061199e565b610357565b60405161012c91906119e6565b60405180910390f35b61013d6103b8565b60405161014a9190611a91565b60405180910390f35b61016d60048036038101906101689190611ae9565b61044a565b60405161017a9190611b57565b60405180910390f35b61019d60048036038101906101989190611b9e565b610466565b005b6101b960048036038101906101b49190611bde565b61047c565b005b6101d560048036038101906101d09190611bde565b61057e565b005b6101f160048036038101906101ec9190611d66565b61059e565b005b61020d60048036038101906102089190611ae9565b6105f5565b60405161021a9190611b57565b60405180910390f35b61023d60048036038101906102389190611dc2565b610607565b60405161024a9190611dfe565b60405180910390f35b61025b6106c1565b6040516102689190611a91565b60405180910390f35b61028b60048036038101906102869190611e45565b610753565b005b6102a760048036038101906102a29190611f26565b610769565b005b6102c360048036038101906102be9190611ae9565b61078e565b6040516102d09190611a91565b60405180910390f35b6102e16108a1565b6040516102ee9190611dfe565b60405180910390f35b610311600480360381019061030c9190611fa9565b6108a7565b60405161031e91906119e6565b60405180910390f35b610341600480360381019061033c9190611fe9565b61093b565b60405161034e9190611dfe565b60405180910390f35b6000634906490660e01b7bffffffffffffffffffffffffffffffffffffffffffffffffffffffff1916827bffffffffffffffffffffffffffffffffffffffffffffffffffffffff191614806103b157506103b082610979565b5b9050919050565b6060600080546103c790612074565b80601f01602080910402602001604051908101604052809291908181526020018280546103f390612074565b80156104405780601f1061041557610100808354040283529160200191610440565b820191906000526020600020905b81548152906001019060200180831161042357829003601f168201915b5050505050905090565b600061045582610a5b565b5061045f82610ae3565b9050919050565b6104788282610473610b20565b610b28565b5050565b600073ffffffffffffffffffffffffffffffffffffffff168273ffffffffffffffffffffffffffffffffffffffff16036104ee5760006040517f64a0ae920000000000000000000000000000000000000000000000000000000081526004016104e59190611b57565b60405180910390fd5b600061050283836104fd610b20565b610b3a565b90508373ffffffffffffffffffffffffffffffffffffffff168173ffffffffffffffffffffffffffffffffffffffff1614610578578382826040517f64283d7b00000000000000000000000000000000000000000000000000000000815260040161056f939291906120a5565b60405180910390fd5b50505050565b61059983838360405180602001604052806000815250610769565b505050565b6105a83383610d54565b6105e7576040517f08c379a00000000000000000000000000000000000000000000000000000000081526004016105de9061214e565b60405180910390fd5b6105f18282610de9565b5050565b600061060082610a5b565b9050919050565b60008073ffffffffffffffffffffffffffffffffffffffff168273ffffffffffffffffffffffffffffffffffffffff160361067a5760006040517f89c62b640000000000000000000000000000000000000000000000000000000081526004016106719190611b57565b60405180910390fd5b600360008373ffffffffffffffffffffffffffffffffffffffff1673ffffffffffffffffffffffffffffffffffffffff168152602001908152602001600020549050919050565b6060600180546106d090612074565b80601f01602080910402602001604051908101604052809291908181526020018280546106fc90612074565b80156107495780601f1061071e57610100808354040283529160200191610749565b820191906000526020600020905b81548152906001019060200180831161072c57829003601f168201915b5050505050905090565b61076561075e610b20565b8383610e45565b5050565b61077484848461047c565b61078861077f610b20565b85858585610fb4565b50505050565b606061079982610a5b565b5060006006600084815260200190815260200160002080546107ba90612074565b80601f01602080910402602001604051908101604052809291908181526020018280546107e690612074565b80156108335780601f1061080857610100808354040283529160200191610833565b820191906000526020600020905b81548152906001019060200180831161081657829003601f168201915b505050505090506000610844611165565b9050600081510361085957819250505061089c565b60008251111561088e5780826040516020016108769291906121aa565b6040516020818303038152906040529250505061089c565b6108978461117c565b925050505b919050565b60075481565b6000600560008473ffffffffffffffffffffffffffffffffffffffff1673ffffffffffffffffffffffffffffffffffffffff16815260200190815260200160002060008373ffffffffffffffffffffffffffffffffffffffff1673ffffffffffffffffffffffffffffffffffffffff16815260200190815260200160002060009054906101000a900460ff16905092915050565b600080600754905060076000815480929190610956906121fd565b919050555061096584826111e5565b61096f8184610de9565b8091505092915050565b60007f80ac58cd000000000000000000000000000000000000000000000000000000007bffffffffffffffffffffffffffffffffffffffffffffffffffffffff1916827bffffffffffffffffffffffffffffffffffffffffffffffffffffffff19161480610a4457507f5b5e139f000000000000000000000000000000000000000000000000000000007bffffffffffffffffffffffffffffffffffffffffffffffffffffffff1916827bffffffffffffffffffffffffffffffffffffffffffffffffffffffff1916145b80610a545750610a5382611203565b5b9050919050565b600080610a678361126d565b9050600073ffffffffffffffffffffffffffffffffffffffff168173ffffffffffffffffffffffffffffffffffffffff1603610ada57826040517f7e273289000000000000000000000000000000000000000000000000000000008152600401610ad19190611dfe565b60405180910390fd5b80915050919050565b60006004600083815260200190815260200160002060009054906101000a900473ffffffffffffffffffffffffffffffffffffffff169050919050565b600033905090565b610b3583838360016112aa565b505050565b600080610b468461126d565b9050600073ffffffffffffffffffffffffffffffffffffffff168373ffffffffffffffffffffffffffffffffffffffff1614610b8857610b8781848661146f565b5b600073ffffffffffffffffffffffffffffffffffffffff168173ffffffffffffffffffffffffffffffffffffffff1614610c1957610bca6000856000806112aa565b6001600360008373ffffffffffffffffffffffffffffffffffffffff1673ffffffffffffffffffffffffffffffffffffffff168152602001908152602001600020600082825403925050819055505b600073ffffffffffffffffffffffffffffffffffffffff168573ffffffffffffffffffffffffffffffffffffffff1614610c9c576001600360008773ffffffffffffffffffffffffffffffffffffffff1673ffffffffffffffffffffffffffffffffffffffff168152602001908152602001600020600082825401925050819055505b846002600086815260200190815260200160002060006101000a81548173ffffffffffffffffffffffffffffffffffffffff021916908373ffffffffffffffffffffffffffffffffffffffff160217905550838573ffffffffffffffffffffffffffffffffffffffff168273ffffffffffffffffffffffffffffffffffffffff167fddf252ad1be2c89b69c2b068fc378daa952ba7f163c4a11628f55a4df523b3ef60405160405180910390a4809150509392505050565b600080610d60836105f5565b90508073ffffffffffffffffffffffffffffffffffffffff168473ffffffffffffffffffffffffffffffffffffffff161480610dcf57508373ffffffffffffffffffffffffffffffffffffffff16610db78461044a565b73ffffffffffffffffffffffffffffffffffffffff16145b80610de05750610ddf81856108a7565b5b91505092915050565b80600660008481526020019081526020016000209081610e0991906123f1565b507ff8e1a15aba9398e019f0b49df1a4fde98ee17ae345cb5f6b5e2c27f5033e8ce782604051610e399190611dfe565b60405180910390a15050565b600073ffffffffffffffffffffffffffffffffffffffff168273ffffffffffffffffffffffffffffffffffffffff1603610eb657816040517f5b08ba18000000000000000000000000000000000000000000000000000000008152600401610ead9190611b57565b60405180910390fd5b80600560008573ffffffffffffffffffffffffffffffffffffffff1673ffffffffffffffffffffffffffffffffffffffff16815260200190815260200160002060008473ffffffffffffffffffffffffffffffffffffffff1673ffffffffffffffffffffffffffffffffffffffff16815260200190815260200160002060006101000a81548160ff0219169083151502179055508173ffffffffffffffffffffffffffffffffffffffff168373ffffffffffffffffffffffffffffffffffffffff167f17307eab39ab6107e8899845ad3d59bd9653f200f220920489ca2b5937696c3183604051610fa791906119e6565b60405180910390a3505050565b60008373ffffffffffffffffffffffffffffffffffffffff163b111561115e578273ffffffffffffffffffffffffffffffffffffffff1663150b7a02868685856040518563ffffffff1660e01b81526004016110139493929190612518565b6020604051808303816000875af192505050801561104f57506040513d601f19601f8201168201806040525081019061104c9190612579565b60015b6110d3573d806000811461107f576040519150601f19603f3d011682016040523d82523d6000602084013e611084565b606091505b5060008151036110cb57836040517f64a0ae920000000000000000000000000000000000000000000000000000000081526004016110c29190611b57565b60405180910390fd5b805181602001fd5b63150b7a0260e01b7bffffffffffffffffffffffffffffffffffffffffffffffffffffffff1916817bffffffffffffffffffffffffffffffffffffffffffffffffffffffff19161461115c57836040517f64a0ae920000000000000000000000000000000000000000000000000000000081526004016111539190611b57565b60405180910390fd5b505b5050505050565b606060405180602001604052806000815250905090565b606061118782610a5b565b506000611192611165565b905060008151116111b257604051806020016040528060008152506111dd565b806111bc84611533565b6040516020016111cd9291906121aa565b6040516020818303038152906040525b915050919050565b6111ff828260405180602001604052806000815250611601565b5050565b60007f01ffc9a7000000000000000000000000000000000000000000000000000000007bffffffffffffffffffffffffffffffffffffffffffffffffffffffff1916827bffffffffffffffffffffffffffffffffffffffffffffffffffffffff1916149050919050565b60006002600083815260200190815260200160002060009054906101000a900473ffffffffffffffffffffffffffffffffffffffff169050919050565b80806112e35750600073ffffffffffffffffffffffffffffffffffffffff168273ffffffffffffffffffffffffffffffffffffffff1614155b156114175760006112f384610a5b565b9050600073ffffffffffffffffffffffffffffffffffffffff168373ffffffffffffffffffffffffffffffffffffffff161415801561135e57508273ffffffffffffffffffffffffffffffffffffffff168173ffffffffffffffffffffffffffffffffffffffff1614155b8015611371575061136f81846108a7565b155b156113b357826040517fa9fbf51f0000000000000000000000000000000000000000000000000000000081526004016113aa9190611b57565b60405180910390fd5b811561141557838573ffffffffffffffffffffffffffffffffffffffff168273ffffffffffffffffffffffffffffffffffffffff167f8c5be1e5ebec7d5bd14f71427d1e84f3dd0314c0f7b2291e5b200ac8c7c3b92560405160405180910390a45b505b836004600085815260200190815260200160002060006101000a81548173ffffffffffffffffffffffffffffffffffffffff021916908373ffffffffffffffffffffffffffffffffffffffff16021790555050505050565b61147a838383611625565b61152e57600073ffffffffffffffffffffffffffffffffffffffff168373ffffffffffffffffffffffffffffffffffffffff16036114ef57806040517f7e2732890000000000000000000000000000000000000000000000000000000081526004016114e69190611dfe565b60405180910390fd5b81816040517f177e802f0000000000000000000000000000000000000000000000000000000081526004016115259291906125a6565b60405180910390fd5b505050565b606060006001611542846116e6565b01905060008167ffffffffffffffff81111561156157611560611c3b565b5b6040519080825280601f01601f1916602001820160405280156115935781602001600182028036833780820191505090505b509050600082602001820190505b6001156115f6578080600190039150507f3031323334353637383961626364656600000000000000000000000000000000600a86061a8153600a85816115ea576115e96125cf565b5b049450600085036115a1575b819350505050919050565b61160b8383611839565b611620611616610b20565b6000858585610fb4565b505050565b60008073ffffffffffffffffffffffffffffffffffffffff168373ffffffffffffffffffffffffffffffffffffffff16141580156116dd57508273ffffffffffffffffffffffffffffffffffffffff168473ffffffffffffffffffffffffffffffffffffffff16148061169e575061169d84846108a7565b5b806116dc57508273ffffffffffffffffffffffffffffffffffffffff166116c483610ae3565b73ffffffffffffffffffffffffffffffffffffffff16145b5b90509392505050565b600080600090507a184f03e93ff9f4daa797ed6e38ed64bf6a1f0100000000000000008310611744577a184f03e93ff9f4daa797ed6e38ed64bf6a1f010000000000000000838161173a576117396125cf565b5b0492506040810190505b6d04ee2d6d415b85acef81000000008310611781576d04ee2d6d415b85acef81000000008381611777576117766125cf565b5b0492506020810190505b662386f26fc1000083106117b057662386f26fc1000083816117a6576117a56125cf565b5b0492506010810190505b6305f5e10083106117d9576305f5e10083816117cf576117ce6125cf565b5b0492506008810190505b61271083106117fe5761271083816117f4576117f36125cf565b5b0492506004810190505b606483106118215760648381611817576118166125cf565b5b0492506002810190505b600a8310611830576001810190505b80915050919050565b600073ffffffffffffffffffffffffffffffffffffffff168273ffffffffffffffffffffffffffffffffffffffff16036118ab5760006040517f64a0ae920000000000000000000000000000000000000000000000000000000081526004016118a29190611b57565b60405180910390fd5b60006118b983836000610b3a565b9050600073ffffffffffffffffffffffffffffffffffffffff168173ffffffffffffffffffffffffffffffffffffffff161461192d5760006040517f73c6ac6e0000000000000000000000000000000000000000000000000000000081526004016119249190611b57565b60405180910390fd5b505050565b6000604051905090565b600080fd5b600080fd5b60007fffffffff0000000000000000000000000000000000000000000000000000000082169050919050565b61197b81611946565b811461198657600080fd5b50565b60008135905061199881611972565b92915050565b6000602082840312156119b4576119b361193c565b5b60006119c284828501611989565b91505092915050565b60008115159050919050565b6119e0816119cb565b82525050565b60006020820190506119fb60008301846119d7565b92915050565b600081519050919050565b600082825260208201905092915050565b60005b83811015611a3b578082015181840152602081019050611a20565b60008484015250505050565b6000601f19601f8301169050919050565b6000611a6382611a01565b611a6d8185611a0c565b9350611a7d818560208601611a1d565b611a8681611a47565b840191505092915050565b60006020820190508181036000830152611aab8184611a58565b905092915050565b6000819050919050565b611ac681611ab3565b8114611ad157600080fd5b50565b600081359050611ae381611abd565b92915050565b600060208284031215611aff57611afe61193c565b5b6000611b0d84828501611ad4565b91505092915050565b600073ffffffffffffffffffffffffffffffffffffffff82169050919050565b6000611b4182611b16565b9050919050565b611b5181611b36565b82525050565b6000602082019050611b6c6000830184611b48565b92915050565b611b7b81611b36565b8114611b8657600080fd5b50565b600081359050611b9881611b72565b92915050565b60008060408385031215611bb557611bb461193c565b5b6000611bc385828601611b89565b9250506020611bd485828601611ad4565b9150509250929050565b600080600060608486031215611bf757611bf661193c565b5b6000611c0586828701611b89565b9350506020611c1686828701611b89565b9250506040611c2786828701611ad4565b9150509250925092565b600080fd5b600080fd5b7f4e487b7100000000000000000000000000000000000000000000000000000000600052604160045260246000fd5b611c7382611a47565b810181811067ffffffffffffffff82111715611c9257611c91611c3b565b5b80604052505050565b6000611ca5611932565b9050611cb18282611c6a565b919050565b600067ffffffffffffffff821115611cd157611cd0611c3b565b5b611cda82611a47565b9050602081019050919050565b82818337600083830152505050565b6000611d09611d0484611cb6565b611c9b565b905082815260208101848484011115611d2557611d24611c36565b5b611d30848285611ce7565b509392505050565b600082601f830112611d4d57611d4c611c31565b5b8135611d5d848260208601611cf6565b91505092915050565b60008060408385031215611d7d57611d7c61193c565b5b6000611d8b85828601611ad4565b925050602083013567ffffffffffffffff811115611dac57611dab611941565b5b611db885828601611d38565b9150509250929050565b600060208284031215611dd857611dd761193c565b5b6000611de684828501611b89565b91505092915050565b611df881611ab3565b82525050565b6000602082019050611e136000830184611def565b92915050565b611e22816119cb565b8114611e2d57600080fd5b50565b600081359050611e3f81611e19565b92915050565b60008060408385031215611e5c57611e5b61193c565b5b6000611e6a85828601611b89565b9250506020611e7b85828601611e30565b9150509250929050565b600067ffffffffffffffff821115611ea057611e9f611c3b565b5b611ea982611a47565b9050602081019050919050565b6000611ec9611ec484611e85565b611c9b565b905082815260208101848484011115611ee557611ee4611c36565b5b611ef0848285611ce7565b509392505050565b600082601f830112611f0d57611f0c611c31565b5b8135611f1d848260208601611eb6565b91505092915050565b60008060008060808587031215611f4057611f3f61193c565b5b6000611f4e87828801611b89565b9450506020611f5f87828801611b89565b9350506040611f7087828801611ad4565b925050606085013567ffffffffffffffff811115611f9157611f90611941565b5b611f9d87828801611ef8565b91505092959194509250565b60008060408385031215611fc057611fbf61193c565b5b6000611fce85828601611b89565b9250506020611fdf85828601611b89565b9150509250929050565b6000806040838503121561200057611fff61193c565b5b600061200e85828601611b89565b925050602083013567ffffffffffffffff81111561202f5761202e611941565b5b61203b85828601611d38565b9150509250929050565b7f4e487b7100000000000000000000000000000000000000000000000000000000600052602260045260246000fd5b6000600282049050600182168061208c57607f821691505b60208210810361209f5761209e612045565b5b50919050565b60006060820190506120ba6000830186611b48565b6120c76020830185611def565b6120d46040830184611b48565b949350505050565b7f4e6f7420617574686f72697a656420746f20757064617465206d65746164617460008201527f6100000000000000000000000000000000000000000000000000000000000000602082015250565b6000612138602183611a0c565b9150612143826120dc565b604082019050919050565b600060208201905081810360008301526121678161212b565b9050919050565b600081905092915050565b600061218482611a01565b61218e818561216e565b935061219e818560208601611a1d565b80840191505092915050565b60006121b68285612179565b91506121c28284612179565b91508190509392505050565b7f4e487b7100000000000000000000000000000000000000000000000000000000600052601160045260246000fd5b600061220882611ab3565b91507fffffffffffffffffffffffffffffffffffffffffffffffffffffffffffffffff820361223a576122396121ce565b5b600182019050919050565b60008190508160005260206000209050919050565b60006020601f8301049050919050565b600082821b905092915050565b6000600883026122a77fffffffffffffffffffffffffffffffffffffffffffffffffffffffffffffffff8261226a565b6122b1868361226a565b95508019841693508086168417925050509392505050565b6000819050919050565b60006122ee6122e96122e484611ab3565b6122c9565b611ab3565b9050919050565b6000819050919050565b612308836122d3565b61231c612314826122f5565b848454612277565b825550505050565b600090565b612331612324565b61233c8184846122ff565b505050565b5b8181101561236057612355600082612329565b600181019050612342565b5050565b601f8211156123a55761237681612245565b61237f8461225a565b8101602085101561238e578190505b6123a261239a8561225a565b830182612341565b50505b505050565b600082821c905092915050565b60006123c8600019846008026123aa565b1980831691505092915050565b60006123e183836123b7565b9150826002028217905092915050565b6123fa82611a01565b67ffffffffffffffff81111561241357612412611c3b565b5b61241d8254612074565b612428828285612364565b600060209050601f83116001811461245b5760008415612449578287015190505b61245385826123d5565b8655506124bb565b601f19841661246986612245565b60005b828110156124915784890151825560018201915060208501945060208101905061246c565b868310156124ae57848901516124aa601f8916826123b7565b8355505b6001600288020188555050505b505050505050565b600081519050919050565b600082825260208201905092915050565b60006124ea826124c3565b6124f481856124ce565b9350612504818560208601611a1d565b61250d81611a47565b840191505092915050565b600060808201905061252d6000830187611b48565b61253a6020830186611b48565b6125476040830185611def565b818103606083015261255981846124df565b905095945050505050565b60008151905061257381611972565b92915050565b60006020828403121561258f5761258e61193c565b5b600061259d84828501612564565b91505092915050565b60006040820190506125bb6000830185611b48565b6125c86020830184611def565b9392505050565b7f4e487b7100000000000000000000000000000000000000000000000000000000600052601260045260246000fdfea26469706673582212200322c655ac2bc0e3d3e423193e84714ec6aee01afcef177edd0b9966e4ace55664736f6c63430008140033",
  "linkReferences": {},
  "deployedLinkReferences": {}
}